:020000040800F2
:10000000E80900207104000877020008790200085E
:100010007D0200088102000885020008000000003F
:10002000000000000000000000000000890200083D
:100030008B020008000000008D0200088F020008FB
:100040008B0400088B0400088B0400088B04000854
:100050008B0400088B0400088B0400088B04000844
:100060008B0400088B0400088B0400088B04000834
:100070008B0400088B0400088B0400088B04000824
:100080008B0400088B0400088B0400088B04000814
:100090008B0400088B0400088B040008392D00082D
:1000A0008B0400088B0400088B0400088B040008F4
:1000B000AF3400088B040008433500088B040008A7
:1000C0008B0400088B0400088B0400088B040008D4
:1000D0008B040008073600089F3700088B040008CF
:1000E0008B0400088B0400088B0400088B040008B4
:1000F0008B0400088B0400088B0400088B040008A4
:100100008B0400088B0400088B0400088B04000893
:100110008B0400088B0400088B0400088B04000883
:100120008B0400088B0400088B0400088B04000873
:1001300000F002F800F090F80AA090E8000C824469
:100140008344AAF10107DA4501D100F085F8AFF246
:10015000090EBAE80F0013F0010F18BFFB1A43F0A5
:10016000010318474458000064580000103A24BFA7
:1001700078C878C1FAD8520724BF30C830C144BF0C
:1001800004680C607047000000230024002500264E
:10019000103A28BF78C1FBD8520728BF30C148BFEA
:1001A0000B6070476E2903F03A86702903F0638470
:1001B000662905F07583652905F07283672905F0C6
:1001C0006F83612905F06E8303681B0A28BF41F025
:1001D0008001692903F0D483642903F0D183752950
:1001E00003F0CE836F2903F01D87782903F02F8455
:1001F000E92903F0B786E42903F0B486F52903F072
:10020000B186EF2903F01A87F82903F02E840368DA
:10021000DB0928BF41F08001632904F0F3827329D0
:1002200004F0F882E32904F00383F32904F008833F
:10023000002070471FB504F059FB04000020002186
:1002400005F03CF8401C60600020002105F020F81B
:10025000E0601FBD10B510BD04F01AFB1146FFF79A
:10026000E9FF02F096FA04F0F3FB03B4FFF7F2FFA4
:1002700003BC03F0D2FA704700BFFEE700BFFEE701
:1002800000BFFEE700BFFEE770477047704770474A
:100290000CB50020019000906C48006840F480305C
:1002A0006A49086000BF6948006800F400300090A7
:1002B0000198401C0190009818B90198B0F5A06F02
:1002C000F1D16248006800F4003010B101200090C4
:1002D00001E0002000900098012843D15C480068AC
:1002E00040F010005A4908600846006820F00300FA
:1002F00008600846006840F0020008605348406803
:10030000524948600846406848600846406840F4E2
:10031000806048600846406820F47C1048600846C9
:10032000406840F4E81048600846006840F080707B
:10033000086000BF4548006800F000700028F9D050
:100340004248406820F00300404948600846406841
:1003500040F00200486000BF3C48406800F00C00DC
:100360000828F9D10CBD10B5FFF792FF10BD10B5EC
:100370003648006840F0010034490860084640688B
:10038000344908403149486008460068324908400D
:100390002E4908600846006820F48020086008465E
:1003A000406820F4FE0048604FF41F008860FFF7AB
:1003B000DAFF4FF000602949086010BD10B5002138
:1003C00000200022214B5B6803F00C0121B10429BD
:1003D00006D0082928D107E0214B224C236027E0D2
:1003E0001F4B204C236023E0184B5B6803F4701014
:1003F000164B5B6803F48032022303EB904022B972
:10040000194B4343174C23600DE0104B5B6803F41A
:10041000003323B1144B4343124C236003E0104BD1
:100420004343104C236003E00D4B0E4C236000BF90
:1004300000BF064B5B68C3F303130C4CE15C094B34
:100440001B68CB40074C236010BD00000010024029
:10045000002002400000FFF0FFFFF6FE08ED00E084
:1004600000127A000000002000093D000400002076
:100470000948804709480047FEE7FEE7FEE7FEE738
:10048000FEE7FEE7FEE7FEE7FEE7FEE70448054974
:10049000054A064B704700006F0300083101000851
:1004A000E8030020E8090020E8050020E805002016
:1004B00031490143314A1160704770B50021002372
:1004C0000F22C47804B32D4C246804F4E064C4F50E
:1004D000E064210AC1F10403CA40447804FA03F13C
:1004E0008478144021430901254C0678A1550478ED
:1004F00004F01F050124AC4005786D11AD0005F135
:10050000E025C5F8004109E0047804F01F05012446
:10051000AC401C4D0678761145F8264070BD1A4A4D
:100520000A400243154B1B1F1A60704739B1134A2A
:10053000121D12680243114B1B1D1A6006E00F4A80
:10054000121D126882430D4B1B1D1A607047042850
:1005500008D14FF0E021096941F004014FF0E02299
:10056000116107E04FF0E021096921F004014FF02B
:10057000E0221161704700000000FA050CED00E078
:1005800000E400E080E100E080FFFF1F10B50446BA
:10059000FA48844208D10121401500F0E3FD002112
:1005A000601500F0DFFD17E0F548844208D1012115
:1005B000001500F0D7FD0021201500F0D3FD0BE061
:1005C000F048844208D10121C80300F0CBFD00218E
:1005D0004FF4004000F0C6FD10BD30B502460020CB
:1005E00000235068E84C20400D790C6844EA05244B
:1005F000204350609068E54C2040D1E902542C43E0
:100600004D7944EA450420439060D06A20F470009C
:100610000C7C641EE4B2234340EA0350D06230BD38
:1006200000210160017141718160C160012101748B
:10063000704721B1826842F00102826003E0826863
:1006400022F001028260704721B1826842F4807218
:10065000826003E0826822F480728260704710B585
:100660000023CBB21AB144681C43446002E04468E2
:100670009C43446010BD816841F00801816070476F
:10068000014600208A6802F008020AB1012000E059
:1006900000207047816841F0040181607047014685
:1006A00000208A6802F004020AB1012000E0002064
:1006B000704721B1826842F4A002826003E0826840
:1006C00022F4A00282607047014600208A6802F48A
:1006D00080020AB1012000E00020704710B50A46F0
:1006E00000210023416821F46041531E41EA433157
:1006F000416010BD21B1426842F40062426003E0F3
:10070000426822F4006242607047F0B504460D462C
:1007100000200021092D11DDE068A5F10A0606EB95
:100720004607072606FA07F18843A5F10A0606EBF5
:10073000460603FA06F10843E0600CE0206905EB89
:100740004507072606FA07F1884305EB450603FA35
:1007500006F108432061072A0FDA606B561E06EB8C
:1007600086071F2606FA07F18843561E06EB860603
:1007700005FA06F10843606322E00D2A0FDA206BC8
:10078000D61F06EB86071F2606FA07F18843D61FF9
:1007900006EB860605FA06F10843206310E0E06ADE
:1007A000A2F10D0606EB86071F2606FA07F188431D
:1007B000A2F10D0606EB860605FA06F10843E06293
:1007C000F0BD21B1826842F48012826003E0826849
:1007D00022F48012826070470146C86C80B2704774
:1007E00066484C300068704721B1426842F480622C
:1007F000426003E0426822F480624260704721B1A7
:10080000426842F48052426003E0426822F480521F
:10081000426070470A460021816821F4E04111439B
:100820008160704721B1826842F40042826003E037
:10083000826822F400428260704721B1826842F4EB
:100840000212826003E0826822F402128260704722
:10085000014600208A6802F400120AB1012000E07B
:1008600000207047F0B504461546002000220026FF
:10087000092911DDE068A1F10A0707EB470C0727FA
:1008800007FA0CF29043A1F10A0707EB470703FAB6
:1008900007F21043E0600CE0206901EB410C0727F0
:1008A00007FA0CF2904301EB410703FA07F21043F9
:1008B0002061A06BC0F30156EF1C06F1010CA7EB01
:1008C0000C0707EB870C1F2707FA0CF29043EF1C6D
:1008D00006F1010CA7EB0C0707EB870701FA07F2FB
:1008E0001043A063F0BD10B50A4600210023816BC0
:1008F00021F44011531E41EA0351816310BD08B534
:10090000002300930090009B0B440093009B1A600F
:1009100008BD08B5024600200090009201F12800B1
:10092000009B184400900098006880B208BD0A46F9
:1009300000214168164B19401143416070474162E4
:10094000826270470A460021416821F01F0111436D
:100950004160704740B109490831096841F400011C
:10096000064A0832116007E004490831096821F499
:100970000001024A08321160704700000024014063
:1009800000280140003C0140FFFEF0FFFDF7F1FFB1
:10099000FFFD3FFF0246002013680B400BB1012012
:1009A00000E000207047CA430260704770B50246FD
:1009B0000020002300240B125568CEB205EA06047D
:1009C00015681D4015B10CB1012000E0002070BD7C
:1009D00000220A12D34303607047000000204449FC
:1009E0000860091D0860091D0860091D086041486C
:1009F0003F4914310860704700213D498279002A3F
:100A00003AD00A46126803689A430B461A600A1DD8
:100A1000126803689A430B1D1A60027911440A6830
:100A200003681A430A60324A0832126803689A431C
:100A30002F4B08331A601A1D126803689A432C4B17
:100A40000C331A604279102A0ED11A1F12680368FB
:100A50001A43274B08331A601A1D126803681A4399
:100A6000234B0C331A600DE02149427911440A6886
:100A700003681A430A6005E0027911440A680368B2
:100A80009A430A6070470021016001710C21417195
:100A90000021817170471649103109680143144AD9
:100AA00010321160704701460020114A143212685A
:100AB0000A400AB1012000E0002070470C491431BF
:100AC00008607047014600200022094B1B6803EABA
:100AD0000102074B14331B680B4013B10AB101200C
:100AE00000E00020704702491431086070470000A0
:100AF00000040140FFFF0F0010B50446CC488442BB
:100B000008D10121042000F02DFB0021042000F079
:100B100029FB46E0C748844208D10121082000F0A3
:100B200021FB0021082000F01DFB3AE0C24884426E
:100B300008D10121102000F015FB0021102000F049
:100B400011FB2EE0BD48844208D10121202000F095
:100B500009FB0021202000F005FB22E0B848844278
:100B600008D10121402000F0FDFA0021402000F0D2
:100B7000F9FA16E0B348844208D10121802000F040
:100B8000F1FA0021802000F0EDFA0AE0AE4884423C
:100B900007D10121801500F0E5FA0021A01500F031
:100BA000E1FA10BD10B50121084600F0DBFA002182
:100BB000012000F0D7FA10BD2DE9F04102460025D2
:100BC0000026002000230024002791F803C00CF029
:100BD0000F0591F803C00CF0100CBCF1000F03D00E
:100BE00091F802C04CEA050591F800C0BCF1000F75
:100BF00031D0146800202BE04FF0010C0CFA00F308
:100C0000B1F800C00CEA03069E4220D183004FF0E9
:100C10000F0C0CFA03F7BC4305FA03FC4CEA04047E
:100C200091F803C0BCF1280F06D14FF0010C0CFA6B
:100C300000FCC2F814C00AE091F803C0BCF1480FF0
:100C400005D14FF0010C0CFA00FCC2F810C0401C9A
:100C50000828D1D31460B1F800C0BCF1FF0F34DD17
:100C6000546800202EE000F1080C4FF0010808FA4B
:100C70000CF3B1F800C00CEA03069E4221D18300B8
:100C80004FF00F0C0CFA03F7BC4305FA03FC4CEAD7
:100C9000040491F803C0BCF1280F05D100F1080C41
:100CA00008FA0CF8C2F8148091F803C0BCF1480FA0
:100CB00007D100F1080C4FF0010808FA0CF8C2F84F
:100CC0001080401C0828CED35460BDE8F0814FF658
:100CD000FF710180022181700421C17070470246BA
:100CE000002093680B400BB1012000E0002070470A
:100CF0000146886880B2704702460020D3680B40E6
:100D00000BB1012000E0002070470146C86880B2A6
:100D1000704701617047416170470AB1016100E0AD
:100D200041617047C16070474FF480320A4382616D
:100D30008161826182698269704702460020434B6B
:100D400018684FF68073184040EA021008433F4B82
:100D5000186070473E49C8617047F0B50A460023E5
:100D600000240021002500F00046B6F1004F02D11A
:100D7000364EF16901E0354E7168C0F3034583B228
:100D800000F44016B6F5401F08D121F070612F4ED7
:100D9000766826F070662D4F7E6012E000F48016B3
:100DA000B6F5801F06D1032606FA05F4A14341F0EB
:100DB000706106E0460D360103FA06F6B14341F0D4
:100DC000706122B1460D360103FA06F6314300F098
:100DD0000046B6F1004F02D11C4EF16101E01B4EFE
:100DE0007160F0BD30B500228B071C0F0F2303FA92
:100DF00004F2164B08338C1053F824309343134CF1
:100E000008348D1044F8253023468C1053F82430D4
:100E10008C07240F00FA04F423430C4C08348D1083
:100E200044F8253030BD0A49DC31086070470000C5
:100E300000080140000C0140001001400014014076
:100E400000180140001C014000200140000001404A
:100E500000002042DF48006840F00100DD490860E2
:100E600008464068DC490840DA494860084600689E
:100E7000DA490840D74908600846006820F4802015
:100E800008600846406820F4FE0048604FF41F00E8
:100E900088607047CF49096821F48031CD4A1160DC
:100EA0001146096821F480211160B0F5803F03D01C
:100EB000B0F5802F0ED106E0C649096841F48031B3
:100EC000C44A116007E0C349096841F4A021C14A3E
:100ED000116000E000BF00BF704710B5014600225E
:100EE000002300204A11012A02D1BA4C236806E0EF
:100EF000022A02D1B74C236A01E0B64C636A01F0C2
:100F00001F02012494401C400CB1012000E000208D
:100F100010BD38B5002000900024002500BF31200E
:100F2000FFF7DBFF05460098401C00900098B0F5E5
:100F3000A06F01D0002DF2D03120FFF7CEFF08B115
:100F4000012400E00024204638BD01460020A14ACB
:100F5000106820F0F80040EAC10010607047A04916
:100F600008607047024600209A4B586820F47C10B5
:100F700042EA01031843974B586070479849086646
:100F8000704701460020934A506820F00300084350
:100F9000506070478F48406800F00C007047014671
:100FA00000208C4A506820F0F000084350607047E1
:100FB00001460020874A506820F4E06008435060F2
:100FC000704701460020834A506820F4605040EA90
:100FD000C1005060704729B17E4A527A02437D4B6E
:100FE0005A7204E07B4A527A82437A4B5A727047B3
:100FF0007B49D8310860704701460020754A506827
:1010000020F440400843506070470021714A20326C
:101010001170704A82F82010012802D004280AD1E9
:1010200004E001216B4A2032117005E00521694A74
:101030002032117000E000BF00BF704769490860AE
:1010400070476449096A0143624A11627047654901
:1010500044390860704730B5002100220024002385
:101060005C4D6D6805F00C0121B1042905D00829FB
:1010700023D105E05C4D056022E05B4D05601FE07B
:10108000544D6D6805F47012524D6D6805F480344E
:10109000022505EB92421CB9544D554305600BE007
:1010A0004C4D6D6805F400351DB1504D554305603C
:1010B00002E04D4D5543056002E04B4D056000BF19
:1010C00000BF444D6D6805F0F0010909484D6B5CA7
:1010D0000568DD4045603F4D6D6805F4E061090A33
:1010E000434D6B5C4568DD4085603A4D6D6805F4A5
:1010F0006051C90A3E4D6B5C4568DD40C560354DA9
:101100006D6805F44041890B3A4D6B5CC568B5FBD1
:10111000F3F5056130BD29B12E4A526902432D4BCA
:101120005A6104E02B4A526982432A4B5A61704744
:1011300029B1284A92690243264B9A6104E0254A64
:1011400092698243234B9A61704729B1214AD2693F
:101150000243204BDA6104E01E4AD26982431D4BF0
:10116000DA61704729B11B4AD2680243194BDA6031
:1011700004E0184AD2688243164BDA60704729B1FE
:10118000144A12690243134B1A6104E0114A1269AE
:101190008243104B1A61704712494039086070470A
:1011A0000F49C86470470B49C87170470948406AC5
:1011B00040F0807007494862704701460020054AA8
:1011C00092680A400AB1012000E0002070470149FE
:1011D00088727047001002400000FFF8FFFFF6FE23
:1011E000000042428004424200127A0000093D00A1
:1011F000140000202400002010B50446BE4884429C
:1012000008D101218014FFF7ADFF0021A014FFF7E2
:10121000A9FF16E0B948844208D101210014FFF764
:10122000AEFF00212014FFF7AAFF0AE0B448844271
:1012300007D10121C013FFF7A2FF0021E013FFF740
:101240009EFF10BD10B50022028802F441520B88A7
:101250004C8823438C882343CC8823430C89234325
:101260004C8923438C892343CC8923431A4302802E
:10127000838B4FF2FF74234083830B8A038210BD5C
:101280002DE9F04F85B005460C464FF000090227C6
:101290004FF000084FF0010B0026B246A88B4FF22A
:1012A00040010840A88302202884B5F81C90A0685B
:1012B000022801D100BF38E0A08810B94FF0010B1F
:1012C00001E04FF0020B8D48854200D100E000BFE5
:1012D0006846FFF7C0FEDDF800A0E088B0F5007FAB
:1012E0000AD14FEA1A2000EB80004000A168B0FB51
:1012F000F1F0401D86B20BE04FEA4B10BAFBF0F064
:1013000000EB80004000A168B0FBF1F0401D86B208
:101310000A20B6FBF0F606F00108A6EB0800C0F3C1
:101320004F074FF6FF7000EA0828022F01DBFF2F5E
:1013300002DD02274FF00008E08840EA0800384349
:101340002884A088A189084361880843218808432C
:1013500040F4006040EA0909A5F81C9005B0BDE81A
:10136000F08F0021018041808180C1800181418115
:101370008181C18107210182704700210180418064
:101380008180C1800221816000218181704721B16B
:10139000028842F04002028004E002884FF6BF73E8
:1013A0001A400280704721B1828B42F480628283AE
:1013B00004E0828B4FF6FF331A408283704730B5CA
:1013C000002400230C110125A540ABB21AB1858879
:1013D0001D43858002E085889D43858030BD1AB11C
:1013E00083880B43838002E083888B43838070472C
:1013F000818170470146888970474FF6FF629142AC
:1014000004D0028842F48072028004E002884FF621
:10141000FF631A400280704721B1828842F00402C3
:10142000828004E082884FF6FB731A408280704706
:1014300002884FF2FF731A40028002880A4302803A
:101440007047018841F480510180704721B10288C2
:1014500042F40052028004E002884DF6FF731A4005
:101460000280704702460020012901D0108B00E065
:10147000908A70470146088A7047B1F5804F04D1C1
:10148000028842F48042028004E002884BF6FF7337
:101490001A40028070470246002013890B400BB1AE
:1014A000012000E000207047CA4302817047F0B578
:1014B0000246002000240023002501F00F0701262A
:1014C000BE40B4B20B1101269E40B3B2968806EA24
:1014D00003051689264016B10DB1012000E0002059
:1014E000F0BD10B5002201F00F040123A3409AB211
:1014F000D343038110BD000000300140003800409C
:10150000003C004010B50446FE48844208D1012149
:10151000C014FFF727FE0021E014FFF723FEC4E00C
:10152000B4F1804F08D101210846FFF728FE0021C1
:101530000120FFF724FEB8E0F348844208D10121DE
:101540000220FFF71CFE00210220FFF718FEACE08E
:10155000EE48844208D101210420FFF710FE00214B
:101560000420FFF70CFEA0E0E948844208D10121E5
:101570000820FFF704FE00210820FFF700FE94E09A
:10158000E448844208D101211020FFF7F8FD002132
:101590001020FFF7F4FD88E0DF48844208D10121E4
:1015A0002020FFF7ECFD00212020FFF7E8FD7CE084
:1015B000DA48844208D101214014FFF7D3FD00210D
:1015C0006014FFF7CFFD70E0D548844209D10121B6
:1015D000C804FFF7C7FD00214FF40020FFF7C2FD4C
:1015E00063E0D048844209D101210805FFF7BAFD24
:1015F00000214FF48010FFF7B5FD56E0CA48844241
:1016000009D101214805FFF7ADFD00214FF400107D
:10161000FFF7A8FD49E0C548844208D101214020D8
:10162000FFF7ADFD00214020FFF7A9FD3DE0C048D8
:10163000844208D101218020FFF7A1FD00218020F4
:10164000FFF79DFD31E0BB48844208D101218015A0
:10165000FFF795FD0021A015FFF791FD25E0B648A5
:10166000844209D101210804FFF77CFD00214FF4D9
:101670008030FFF777FD18E0B048844209D101219E
:101680004804FFF76FFD00214FF40030FFF76AFDBB
:101690000BE0AB48844208D101218804FFF762FDCA
:1016A00000214FF48020FFF75DFD10BD002202886D
:1016B000944B98420ED0994B98420BD0B0F1804F8A
:1016C00008D0914B984205D0904B984202D0904B55
:1016D000984204D14FF68F731A404B881A438D4BB2
:1016E000984207D08C4B984204D04FF6FF431A40E3
:1016F000CB881A4302808B8883850B880385814BB6
:1017000098420BD0854B984208D08B4B984205D01D
:101710008A4B984202D08A4B984201D10B7A0386B9
:1017200001238382704770B5002400220023058CBA
:101730004FF6FE7635400584028C8388048B4FF685
:101740008F752C40B51E2C400D882C43751E2A40E9
:101750000D892A434D882A436A4DA8420BD06F4D0C
:10176000A84208D0744DA84205D0744DA84202D0BA
:10177000734DA84213D14FF6F7752A404D892A437D
:101780004FF6FB752A408D882A434FF6FF652B40A4
:101790004FF6FF552B408D892B43CD892B438380FA
:1017A0000483CD888586028470BD70B50024002234
:1017B0000023058C4FF6EF7635400584028C838834
:1017C000048B48F6FF752C404FF6FF452C400D88E2
:1017D0004FF6FF7606EA05252C434FF6DF752A40C3
:1017E0000D8906EA05152A434D8806EA05152A43A0
:1017F000444DA84202D0494DA8421DD14FF67F75F5
:101800002A404D894FF6FF7606EA05152A434FF622
:10181000BF752A408D8806EA05152A434FF6FF3525
:101820002B404FF2FF752B408D8906EA85052B432F
:10183000CD8906EA85052B4383800483CD880587FF
:10184000028470BD70B5002400220023058C4FF681
:10185000FF6635400584028C8388848B4FF68F7534
:101860002C404FF6FC752C400D882C434FF6FF554D
:101870002A400D894FF6FF7606EA05252A434D8852
:1018800006EA05252A431F4DA84202D0234DA8424F
:101890001DD14FF2FF752A404D894FF6FF7606EABB
:1018A00005252A434FF6FF352A408D8806EA05258F
:1018B0002A434EF6FF752B404DF6FF752B408D8960
:1018C00006EA05152B43CD8906EA05152B438380CF
:1018D0008483CD888587028470BD70B50022002383
:1018E0000024058C4EF6FF7635400584038C8488F1
:1018F000828B48F6FF752A404FF6FF452A400D8837
:1019000020E00000002C01400004004000080040DE
:10191000000C004000100040001400400034014062
:10192000004C0140005001400054014000180040AC
:10193000001C0040002000400040014000440140E5
:10194000004801404FF6FF7606EA05252A434DF68A
:10195000FF752B400D8906EA05352B434D8806EAB5
:1019600005352B43FA4DA84202D0FA4DA84208D1C2
:101970004BF6FF752C408D894FF6FF7606EA8515EC
:101980002C4384808283CD88A0F84050038470BDAE
:10199000828B4FF2FF331A408283828B4FF6FF73A4
:1019A00003EA01231A4382837047F0B50C461546BB
:1019B000002200210026078C4EF6FF7C07EA0C0768
:1019C0000784828B018C4FF6FF7707EA043640F6D6
:1019D000FF473A404FF6FF7707EA05273A434FF6AD
:1019E000FF7707EA03373A43D94FB8420ED0D94FB1
:1019F000B8420BD0B0F1804F08D0D74FB84205D0D5
:101A0000D64FB84202D0D64FB84206D14DF6FF7736
:101A1000394046F48057394305E047F6FF573940CF
:101A200044F48057394382830184F0BD828B4FF6A2
:101A3000F3731A408283828B0A4382837047F0B526
:101A40000C461546002200210026078C4FF6FF6C3D
:101A500007EA0C070784828B018C4FF6FF7707EAB1
:101A600004264FF60C773A404FF6FF7707EA031744
:101A70002F433A43B64FB8420ED0B64FB8420BD0C0
:101A8000B0F1804F08D0B44FB84205D0B34FB84240
:101A900002D0B34FB84206D14FF6FF57394046F453
:101AA0008077394305E04FF2FF57394044F480779F
:101AB000394382830184F0BD028B4FF2FF331A4019
:101AC0000283028B4FF6FF7303EA01231A4302835A
:101AD0007047F0B50C461546002200210026078C01
:101AE0004FF6EF7C07EA0C070784028B018C4FF658
:101AF000FF7707EA041640F6FF473A404FF6FF77B4
:101B000007EA03373A434FF6FF7707EA05273A43D8
:101B10008F4FB8420ED08F4FB8420BD0B0F1804FEC
:101B200008D08D4FB84205D08C4FB84202D08C4FB0
:101B3000B84206D14FF6DF77394046F010073943F7
:101B400005E04FF65F77394044F0100739430283D0
:101B50000184F0BD028B4FF6F3731A400283028BAF
:101B60000A4302837047F0B50C4615460022002157
:101B7000068C4FF6FE773E400684028B018C4FF6B2
:101B80000C7632407E1C06EA03162E433243704E1A
:101B9000B0420ED06F4EB0420BD0B0F1804F08D0A3
:101BA0006D4EB04205D06D4EB04202D06C4EB04288
:101BB00006D14FF6FD76314044F00106314305E091
:101BC0004FF6F576314044F001063143028301843B
:101BD000F0BD70B505460C465D4885420ED05D48A7
:101BE00085420BD0B5F1804F08D05B48854205D0C7
:101BF0005A48854202D05A48854200D100E000BFD1
:101C0000208850B92389A28861882846FFF7ABFF56
:101C1000E1882846FFF79EFF25E0208804280AD1A6
:101C20002389A28861882846FFF753FFE188284668
:101C3000FFF742FF17E0208808280AD12389A288ED
:101C400061882846FFF7FBFEE1882846FFF7EEFE95
:101C500009E02389A28861882846FFF7A6FEE1886B
:101C60002846FFF795FE70BD2DE9F04105460C466C
:101C700000260127608808B9022600E00026A08817
:101C8000012801D1022700E001272088A0B923897B
:101C9000A28861882846FFF766FFE1882846FFF79B
:101CA00059FF23893A4631462846FFF712FFE1885B
:101CB0002846FFF701FF13E02389A28861882846A0
:101CC000FFF707FFE1882846FFF7F6FE23893A462B
:101CD00031462846FFF747FFE1882846FFF73AFFDD
:101CE000BDE8F0810A884B881A438B881A43CB8859
:101CF0001A430B891A434B891A438B891A43A0F85C
:101D0000442070474FF6FF71818000210180C1801F
:101D10004180017270470021018041808180C18033
:101D2000018141818181C181704700210180418011
:101D3000012181800021C180018170470021018043
:101D400041808180C1800181418181817047000093
:101D5000002C014000340140000400400008004015
:101D6000000C004021B1028842F00102028004E030
:101D700002884FF6FE731A400280704731B1B0F806
:101D8000442042F40042A0F8442005E0B0F844208A
:101D9000C2F30E02A0F8442070471AB183890B43A6
:101DA000838102E083898B438381704781827047FE
:101DB00041EA0203A0F8483070471AB183890B4307
:101DC000838102E083898B438381704701894FF6C9
:101DD000F8721140018170470A46002101894FF6CF
:101DE0008F73194011430181704730B504460D4689
:101DF00029462046FFF7F0FF208940F007002081A8
:101E000030BD2DE9F04104460D4616461F46602DB3
:101E100006D13B46012231462046FFF75AFE05E037
:101E20003B46012231462046FFF79DFE29462046CB
:101E3000FFF7D2FF208940F007002081BDE8F08144
:101E400030B50C4600210189C9B24FF6FF7505EA8D
:101E50000325154325432943018130BD2DE9F04178
:101E600005460E4617469846002443463A463146F4
:101E70002846FFF7E5FF2C894FF6F870044044F040
:101E800007044FF68F70044044F070042C81BDE8C5
:101E9000F081F0B504460D4616461F463B463246D5
:101EA00029462046FFF7CCFF208940F4804020815E
:101EB000F0BD0185828270470A46002101884FF6F5
:101EC0008F731940114301807047F0B50C461546D9
:101ED0001E460021002200230189028B038C4FF64D
:101EE000F877394021434FF6FC473A4040F201175A
:101EF0003A434FF6DD773B404FF6FF7707EA061788
:101F00002F433B43018102830384F0BD0A46002135
:101F1000018B4FF68F7319401143018370470A46B6
:101F20000021018B48F6FF7319404FF6FF7303EA57
:101F300002231943018370470A460021818B4FF623
:101F40008F7319401143818370470A460021818BAA
:101F500048F6FF7319404FF6FF7303EA0223194353
:101F60008183704721B1028842F08002028004E040
:101F700002884FF67F731A400280704721B1828831
:101F800042F00402828004E082884FF6FB731A401C
:101F90008280704721B1828842F00802828004E08A
:101FA00082884FF6F7731A408280704721B1828889
:101FB00042F00102828004E082884FF6FE731A40EC
:101FC000828070470A460021018B4FF6F773194053
:101FD0001143018370470A460021018B4FF2FF73C2
:101FE00019404FF6FF7303EA022319430183704738
:101FF0000A460021818B4FF6F77319401143818304
:1020000070470A460021818B4FF2FF7319404FF64B
:10201000FF7303EA02231943818370470A460021B4
:10202000018B4FF6FB7319401143018370470A4639
:102030000021018B4FF6FF3319404FF6FF7303EA7F
:1020400002231943018370470A460021818B4FF612
:10205000FB7319401143818370470A460021818B2D
:102060004FF6FF3319404FF6FF7303EA022319437B
:10207000818370470A460021018B4FF67F73194018
:102080001143018370470A460021018BC1F30E0101
:102090004FF6FF7303EA02231943018370470A4690
:1020A0000021818B4FF67F73194011438183704764
:1020B0000A460021818BC1F30E014FF6FF7303EA3C
:1020C00002231943818370470A460021018C4FF691
:1020D000FD7319401143018470470A460021018CA9
:1020E0004FF6F77319401143018470470A460021E7
:1020F000018C4FF6DF7319404FF6FF7303EA0213AA
:102100001943018470470A460021018C4FF67F7302
:1021100019404FF6FF7303EA021319430184704715
:102120000A460021018C4FF6FF5319404FF6FF730A
:1021300003EA02231943018470470A460021018CF7
:102140004FF2FF7319404FF6FF7303EA022319435E
:10215000018470470A460021018C4DF6FF73194037
:102160004FF6FF7303EA023319430184704730B519
:10217000002301248C40A3B2048C9C430484048C6F
:1021800002FA01F5ADB22C43048430BD30B5002312
:1021900004248C40A3B2048C9C430484048C02FA73
:1021A00001F5ADB22C43048430BD70B50346002068
:1021B00000241846183001258D40ACB21D8CA54373
:1021C0001D8409B1082909D100EB6100056825F0DB
:1021D000700505600568154305600EE00D1FC5F329
:1021E0004E052844056825F4E045056005684FF66E
:1021F000FF7606EA02263543056070BD21B10288EC
:1022000042F00202028004E002884FF6FD731A4099
:102210000280704721B1028842F00402028004E08B
:1022200002884FF6FB731A400280704721B1828802
:1022300042F08002828004E082884FF67F731A4069
:102240008280704702884FF6F7731A400280028836
:102250000A430280704782884FF68F731A4082804B
:1022600082880A438280704702894FF6F8731A40C9
:10227000028102890A430281704702894FF67F7307
:102280001A40028102890A430281704781847047A3
:1022900081857047818670470187704781877047C5
:1022A000A0F84010704702884FF6FF431A400280A2
:1022B00002880A43028070470146888E70470146B3
:1022C000088F70470146888F70470146B1F840007B
:1022D00070470146888C70470146088D704702465A
:1022E0000020138A0B400BB1012000E00020704752
:1022F000CA430282704730B5024600200023002402
:10230000158A05EA0103958905EA010413B10CB1A8
:10231000012000E0002030BDCA4302827047000067
:1023200010B50446FB48844209D101218803FEF719
:1023300019FF00214FF48040FEF714FF32E0F64809
:10234000844209D101214804FEF719FF00214FF40E
:102350000030FEF714FF25E0F048844209D1012146
:102360008804FEF70CFF00214FF48020FEF707FFE2
:1023700018E0EB48844209D10121C804FEF7FFFEB2
:1023800000214FF40020FEF7FAFE0BE0E5488442FE
:1023900008D101210805FEF7F2FE00214FF480105C
:1023A000FEF7EDFE10BD2DE9F04786B005460E465E
:1023B0000024A24600BFA1460027B08900B100BF9B
:1023C0002F462C8A4CF6FF700440F08804432C8280
:1023D000AC894EF6F3100440B08831890843718906
:1023E00008430443AC81AC8A4FF6FF400440B089F7
:1023F0000443AC8201A8FEF72EFEC648874202D1F4
:10240000DDF810A001E0DDF80CA0A88900F4004080
:1024100040B10AEBCA0000EB0A1031684900B0FB7A
:10242000F1F807E00AEBCA0000EB0A1031688900F6
:10243000B0FBF1F86420B8FBF0F00401200964213E
:1024400001FB1089A88900F4004040B1322000EB64
:10245000C900B0FBF1F000F00700044308E03220AF
:1024600000EB09106421B0FBF1F000F00F00044311
:102470002C8106B0BDE8F0874FF4165101600021B1
:102480008180C18001810C214181002181817047BF
:1024900010B502460020108A4FF2FF0318400B8847
:1024A0004C8823438C882343CC88234318431082D1
:1024B00010BD0021018041808180C180704721B121
:1024C000828942F40052828104E082894DF6FF73D2
:1024D0001A4082817047F0B503460024002600258B
:1024E000002040F66A17B94200D100BF1846C1F378
:1024F000421401F01F06012707FA06F5012C01D14D
:102500000C3004E0022C01D1103000E014301AB17C
:1025100007682F43076002E00768AF430760F0BD1C
:102520001AB1838A0B43838202E0838A8B438382BE
:102530007047028A4FF6F0731A400282028A0A43F9
:102540000282704782894FF2FF731A40828182892A
:102550000A438281704721B1828942F0020282815E
:1025600004E082894FF6FD731A4082817047028A27
:102570004FF6DF731A400282028A0A4302827047D2
:1025800021B1028A42F48042028204E0028A4BF6C0
:10259000FF731A4002827047C1F3080282807047BD
:1025A00001468888C0F308007047818941F0010125
:1025B00081817047028BD2B20283028B42EA0122F0
:1025C00002837047028B02F47F420283028B0A432C
:1025D0000283704721B1828A42F02002828204E0A5
:1025E000828A4FF6DF731A408282704721B1828A55
:1025F00042F01002828204E0828A4FF6EF731A40A2
:102600008282704721B1828A42F00802828204E00D
:10261000828A4FF6F7731A408282704721B182890D
:1026200042F40042828103E08289C2F30E02828179
:10263000704721B1828A42F40062828204E0828A79
:102640004FF2FF731A4082827047828A4FF6FB7303
:102650001A408282828A0A438282704721B1828A2A
:1026600042F00202828204E0828A4FF6FD731A4031
:102670008282704702460020B1F5007F00D100BF82
:1026800013880B400BB1012000E00020704701F4DB
:102690000072B2F5007F00D100BFCA4302807047CC
:1026A00070B50246002400230025002040F66A167B
:1026B000B14200D100BFC1F3421501F01F03012652
:1026C00006FA03F3012D02D19689334006E0022D6C
:1026D00002D1168A334001E0968A33400C1201265B
:1026E00006FA04F41688344013B10CB1012000E05E
:1026F000002070BD10B50022002340F66A14A142EC
:1027000000D100BF0A1201249440A3B2DC4304802C
:1027100010BD000000380140004400400048004067
:10272000004C00400050004010B5EE480078401EBC
:10273000C2B2EC480078401EC1B2901E002801D5FC
:10274000D01CC2B2481E002802D4881E002801D521
:10275000C81CC1B2881EE44B53F82030901EE34CD5
:1027600054F82000181A40F28D5358434B1EDE4C8B
:1027700054F82330352404FB0300DB4B43F82100DD
:10278000184650F8210010BD01460846000200120C
:102790007047ADF5067D4FF0000A002085908490CB
:1027A0003C2175A801F055FA00BF4FF4C8710DA87F
:1027B00001F04FFA00BFAA208DF8D4018DF8D501A1
:1027C000F1208DF8D60108208DF8D701FDF7CFFD57
:1027D00000F0F0FC642000F02AFD4FF4E13000F03E
:1027E000C3FE75AAC249C34800F082FD01228021C0
:1027F000BF48001FFFF794FE01F02EF80120BE49EC
:1028000008600020BD49C1F8AC0100F02CFA19E0C5
:10281000BBA001F0A9F8012000F02DFDB648243836
:10282000006808B9012000E00020B349243908609D
:10283000B248D0F8880108B9012000E00020AE4974
:1028400020390860002000F061FC0028E0D1B2A02F
:1028500001F08AF8012000F00EFD0120A64924397C
:102860000860A649C1F888014FF4E15142F21070A6
:1028700000F0E4FD4FF4E15144F6206000F02AFE40
:10288000AA48006840F48070A849086029E1A84877
:10289000007800287ED0A748C0780004A5490979AF
:1028A00040EA0120A349497908437390A1488079FF
:1028B0000004A049C97940EA01209E49097A0843E9
:1028C00074907398FFF760FF71907498FFF75CFF46
:1028D000729071987390729874908449814A1278BA
:1028E000729841F822007F480078401C7D490870AA
:1028F00008460078022807DD8F480078401C8E4982
:10290000087000207749087076480078022806DDB4
:1029100089480078022802DDFFF706FF749073985B
:10292000000E8DF8D8017398000C8DF8D9017398BA
:10293000000A8DF8DA017398C0B28DF8DB01749843
:10294000000E8DF8DC017498000C8DF8DD01749890
:10295000000A8DF8DE017498C0B28DF8DF019DF891
:10296000DE1184980F3081421CD99DF8DE018490DD
:102970008598B8B90AF1010A01208590BAF1030FD0
:1029800010D16E4800886E4991FBF0F94FF0000AB3
:10299000002000E034E069490880BAF1000F01D05E
:1029A0004FF0010A9DF8DE1184984038814204D22C
:1029B000002085909DF8DE0184900A20B9FBF0F09C
:1029C000C0B28DF8E0010A20B9FBF0F100FB1190D4
:1029D0008DF8E101002056490870002406E075A832
:1029E000005D584400F0FF0B601CC4B2112CF6DBF4
:1029F0008DF8E5B112213F4800F0ACFC4FF0000B20
:102A00004E4800884FF4FA7190FBF1F201FB12007E
:102A1000002863D10A21072000F077FF0C900C9862
:102A200002F037FD4FF06632464BCDE9060102F069
:102A300043FD0022444BCDE9080102F03DFD05466F
:102A40000E462A4633464148414902F035FD2A46A2
:102A50003346CDE906013F483F4902F02DFD2A46A5
:102A60003346CDE9000102F027FD3C4A3C4BCDE95D
:102A7000020102F01FFECDE90401DDE9062302F0A8
:102A800025FE0022374BCDE9080102F02DFC074658
:102A900088460022344B3846414602F00DFDCDE910
:102AA000080102F0C9FC80B20A2190FBF1F201FB9F
:102AB000120080B20B903846414602F0BDFC80B255
:102AC0000A900A9800128DF8E2010A98C0B28DF8B7
:102AD000E3010B98C0B28DF8E40100BF642000F060
:102AE00082FBD4E62800002058000020640000206B
:102AF0000438014044000240A88121420080214264
:102B000031323932BCC4B4E6C6F7C9E8D6C3CAA765
:102B1000B0DC0D0A00000000BCC4B4E6C6F7C9E88A
:102B2000D6C3B3C9B9A60D0A0000000000040140D5
:102B3000490000207C0000202900002024080040DB
:102B4000808D5B0066664A3F00408F40632C2EE913
:102B500083C0C63F7F69ADB6B07AE03E637FD93DA2
:102B6000799469400000E03F0000244010B504461D
:102B7000204600F037FC10BD2DE9F04107460E4617
:102B800015460020FE490860642000F02CFB384602
:102B9000FFF7ECFF642000F026FB711EC8B2FFF7C0
:102BA000E5FF07F0400068B1002408E0642000F071
:102BB0001AFB2878FFF7DAFF6D1C601CC4B2B44220
:102BC000F4DB0DE0002409E0642000F00CFB0020A1
:102BD000FFF7CCFF28706D1C601CC4B2B442F3DB5D
:102BE000642000F000FB0120E5490860BDE8F081A9
:102BF00010B504460020E2490860642000F0F3FAB2
:102C00002046FFF7B3FF642000F0EDFA0120DD4914
:102C1000C1F8B00110BD3EB51120FFF7E9FF6420F7
:102C200000F005FB0620FFF7E3FF012000F023FB87
:102C30001120FFF7DDFF642000F0F9FA6A460C214D
:102C40002020FFF799FFD0A000F08EFE002407E0BF
:102C50001DF804202146D1A000F086FE601CC4B2FD
:102C60000C2CF5DB3EBD1FB501210D20FEF760FAEF
:102C700000F07CFB4FF48070ADF80C0048208DF81C
:102C80000F0003A9C748FDF797FF4FF48050ADF838
:102C90000C0001208DF80E0010208DF80F0003A904
:102CA000C148FDF789FF4FF48070FDF71CFF082134
:102CB0000020FEF797F84FF48070019000208DF807
:102CC00008000C208DF8090001208DF80A0001A8E9
:102CD000FDF792FE4FF4A060FDF7EAFB17208DF898
:102CE000000001208DF801008DF802008DF803002E
:102CF0006846FDF7E2FBAD48006820F48070AB4900
:102D0000086001209E490860FFF785FF1FBD70B570
:102D1000044600209A490860002506E00020FFF7DD
:102D200025FF2070641C681CC5B2092DF6DB01204C
:102D300093490860002070BD10B59C48006800F4FD
:102D4000807060B19A48006848B94FF48070FDF710
:102D5000CAFE9848FFF7DBFF01209749087010BDB5
:102D600073209649087000204870084640789449BE
:102D70000978084391494870002088700846807897
:102D80009049097840EA81108C498870084680781B
:102D90008C49497840EA4110884988700846807813
:102DA0008849897840EA011084498870084680780B
:102DB0008449C97840EAC100804988700846807813
:102DC0008049097940EA41007C498870084680784A
:102DD00040F0810088701020C870002008710846FB
:102DE00000797949097840EAC110744908710846A8
:102DF00000797549497840EA011070490871084620
:102E000000797149897808436C490871002048713C
:102E1000084640796D49097840EAC1106749487110
:102E2000084640796949497840EA01106349487188
:102E3000084640796549897808436049487100200F
:102E40008871084680796249097840EA41105B49F7
:102E50008871084680795E49497840EA01105749EF
:102E60008871084680795A49897840EAC1005349F7
:102E70008871084680795649C97840EA81004F49EF
:102E80008871084680795249097940EA41004B49E6
:102E90008871084680794E494979084347498871C5
:102EA0000846807940F0C00088710020C87108464B
:102EB000C0794849097840EA41104049C87108463C
:102EC000C0794449497840EA01103C49C871084634
:102ED000C0794049897840EAC1003849C87108463C
:102EE000C0793C49C97840EA81003449C871084634
:102EF000C0793849097940EA41003049C87108462B
:102F0000C0793449497908432C49C87100200872B6
:102F100048720846407A3049097840EAC11027498A
:102F200048720846407A2C49497840EA8110234982
:102F300048720846407A2849897840EA81001F494A
:102F400048720846407A2449C97808431B494872A8
:102F50000846407A40F00200487200208872084615
:102F6000807A1E49097840EAC110144988720846DF
:102F7000807A1A49497840EA8100104988722FE026
:102F8000B0812142008021427265616420646566DF
:102F900061756C74205245473A0D0A00256420255E
:102FA000780D0A0000080140000C014000040140B7
:102FB000200121427C0000204900002070000020F8
:102FC0002A0000202B0000203000002033000020C9
:102FD000360000203C000020420000204600002077
:102FE0000846807A5E49897840EA41005D498872E6
:102FF0000846807A40F0010088720C20C872704741
:103000003EB50025FFF7ACFE564A521C0B2141206D
:10301000FFF7B2FD0A2000F00AF96A460C212020D1
:10302000FFF7AAFD0A2000F002F94FA000F09CFC77
:10303000002408E04B48025D2146AFF2A00000F0FA
:1030400093FC601CC4B20C2CF4DB4BA000F08CFC95
:10305000002417E04348005D1DF80410884207D0A3
:103060002CB1082C03D00B2C01D0012500E007E087
:103070001DF804202146AFF2DC0000F075FC00BF13
:10308000601CC4B20C2CE5DB1DB93EA000F06CFC4A
:1030900002E041A000F068FC28463EBD10B50024C7
:1030A00001204149087105204049887040498870D5
:1030B000FFF7A6FF00B101240A2000F0B8F820466F
:1030C00010BD10B500240020374908710120374990
:1030D000887037498870FFF793FF00B101240A20F8
:1030E00000F0A5F8204610BD10B5002400202E49A0
:1030F00008712E4988702E498870FFF781FF00B152
:1031000001240A2000F093F8204610BD70B5054652
:103110000A2000F08CF825B1012D06D0022D0CD12B
:1031200007E0FFF7E1FF044607E0FFF7B7FF0446BB
:1031300003E0FFF7C6FF044600BF00BF0CB101204B
:1031400070BD1020FFF754FD0A2000F070F8082031
:10315000FFF74EFD0A2000F06AF80020F0E70000BB
:103160004600002070000020575249544520524527
:10317000473A0D0A0000000052454144205245479D
:103180003A0D0A00524547207772697465207375BD
:1031900063636573730D0A00524547207772697443
:1031A00065206572720D0A002B000020300000209F
:1031B0003300002010B56FF00400FDF7C8F948484F
:1031C00000684849B0FBF1F04749087008460078AC
:1031D00000EB4001C1EBC0104FF6FF7101EAC000E7
:1031E0004249088010BD01463F4A12784A434FF0D9
:1031F000E0235A6100229A611A46126942F00102E4
:103200001A6100BF4FF0E022106900F001021AB10C
:1032100000F48032002AF5D04FF0E022126922F04B
:1032200001024FF0E0231A6100229A6170470146C3
:103230002E4A12884A434FF0E0235A6100229A61D5
:103240001A46126942F001021A6100BF4FF0E022F3
:10325000106900F001021AB100F48032002AF5D0A2
:103260004FF0E022126922F001024FF0E0231A61D0
:1032700000229A61704710B50446642104FB01F0F6
:10328000FFF7D5FF642104FB01F0FFF7D0FF6421B5
:1032900004FB01F0FFF7CBFF642104FB01F0FFF713
:1032A000C6FF642104FB01F0FFF7C1FF642104FBAA
:1032B00001F0FFF7BCFF642104FB01F0FFF7B7FF4B
:1032C000642104FB01F0FFF7B2FF642104FB01F06D
:1032D000FFF7ADFF642104FB01F0FFF7A8FF10BD6D
:1032E0000000002000127A004A0000204C0000205C
:1032F00070B504460E4615461B48406940F0010073
:10330000194948610A20FFF792FFA660E560002096
:10331000206020682060206820602068206020688D
:1033200040F0100020602068206020682060206845
:1033300040F08000206020682060206820602068C5
:10334000206020682060206820602068206020685D
:10335000206070BD026822F00102026041600268D4
:1033600042F00102026070470010024000B587B0D1
:1033700001210820FDF7DCFE01218803FDF7E5FEB1
:103380004FF46040ADF8180018208DF81B000320A2
:103390008DF81A0006A92748FDF70EFC0020ADF8AD
:1033A00004004FF48270ADF806000020ADF808006C
:1033B000ADF80A000120ADF80C004002ADF80E0097
:1033C0000020ADF81000ADF812000720ADF8140091
:1033D00001A91948FDF736FF01211748FDF7D7FF6E
:1033E00007B000BD70B50546002405E0601CC4B2FE
:1033F000C82C01DD002070BD02210F48FEF74BF8FC
:103400000028F3D029460C48FDF7F2FF002405E020
:10341000601CC4B2C82C01DD0020ECE70121064885
:10342000FEF739F80028F3D00348FDF7E3FFC0B2F8
:10343000E1E70000000C0140003800407FB5054680
:103440000C4601210846FDF780FE681E80B2ADF8EB
:103450000800601E80B2ADF804000020ADF80A003C
:10346000ADF8060001A94FF08040FEF71FF94FF4B8
:10347000A060FDF71DF81C208DF8000002208DF8DB
:10348000010001208DF802008DF803006846FDF769
:1034900014F801218807FEF73FFF0122114690072B
:1034A000FEF77BFC01218807FEF75CFC7FBD10B5B1
:1034B00001218807FEF71FFF58B101218807FEF799
:1034C0002BFF2748006808B9012000E000202449AC
:1034D000086010BD7FB505460C4601210420FDF7AC
:1034E00034FE681E80B2ADF80800601E80B2ADF8F0
:1034F00004000020ADF80A00ADF8060001A9194843
:10350000FEF7D4F84FF4A060FCF7D2FF1E208DF830
:10351000000001208DF801008DF802008DF80300F5
:103520006846FCF7CAFF01210E48FEF7F5FE0122AE
:1035300011460C48FEF731FC01210A48FEF712FC47
:103540007FBD10B501210748FEF7D5FE38B1012136
:103550000448FEF7E1FE002002492431088010BD36
:10356000848121420008004010B586B00446012144
:1035700044F20400FDF7DCFD4FF40070ADF81400D8
:1035800003208DF8160018208DF8170005A9AA4809
:10359000FDF712FB4FF48060ADF8140004208DF8A5
:1035A000170005A9A448FDF707FB4FF4A060FCF73E
:1035B0007FFF25208DF8000001208DF801008DF897
:1035C00002008DF803006846FCF777FF01940020A5
:1035D000ADF80800ADF80A00ADF80C00ADF8100029
:1035E0000C20ADF80E0001A99448FEF7DCFE002285
:1035F00040F225519148FEF76EFF01218F48FEF7FA
:103600005EFF06B010BD10B540F225518B48FFF7A4
:1036100047F8A8B38948FEF7C3FFC4B288480088BA
:1036200000F4004058BB8648008800F4804060B138
:103630000A2C03D000208249088020E080480088BE
:1036400040F400407E49088019E00D2C06D17C48EA
:10365000008840F480407A49088010E0784800886B
:10366000C0F30D0077490C5475480088401C74491C
:10367000088008460088FE2801DD0020088000BF81
:1036800010BD10B586B0044601210420FDF750FDA1
:1036900001214804FDF759FD0420ADF81400032072
:1036A0008DF8160018208DF8170005A96248FDF75F
:1036B00083FA0820ADF8140004208DF8170005A93E
:1036C0005D48FDF779FA4FF4A060FCF7F1FE262083
:1036D0008DF8000000208DF8010001208DF8020017
:1036E0008DF803006846FCF7E8FE01940020ADF871
:1036F0000800ADF80A00ADF80C00ADF810000C2081
:10370000ADF80E0001A95048FEF74DFE002240F230
:1037100025514D48FEF7DFFE01214B48FEF7CFFE55
:1037200006B010BD2DE9F04107460D4616460024AF
:1037300000BF0CE000BF40213846FEF79BFF012888
:10374000F9D1295D3846FEF727FF601CC4B2B442A8
:10375000F0DBBDE8F0810FB438B505A800903B4818
:10376000009A049900F0EEF800200090374800F02D
:1037700051FA85B200240DE000BF40213248FEF727
:1037800079FF0028F9D03148015D2F48FEF704FF8A
:10379000601C84B2AC42EFDB38BC5DF814FB10B5A2
:1037A00040F225512848FEF77BFFA8B32648FEF7D4
:1037B000F7FEC4B22648008800F4004058BB2448F5
:1037C000008800F4804060B10A2C03D0002020491A
:1037D000088020E01E48008840F400401C49088012
:1037E00019E00D2C06D11A48008840F48040184991
:1037F000088010E016480088C0F30D0015490C54ED
:1038000013480088401C1249088008460088FE289A
:1038100001DD0020088000BF10BD00BF704700BF61
:10382000064A128802F04002002AF9D0C2B2034BC5
:103830001B1D1A807047000000080140003801403D
:10384000500000208500002000440040830200203A
:10385000520000208401002000B587B001214FF400
:103860000170FDF765FC4FF40040FDF7C5FB8020BB
:10387000ADF8040000208DF8070001A92E48FDF7DF
:103880009BF92E48FCF782FE002002908DF80C0078
:103890008DF80D004FF46020049000200590012069
:1038A0008DF8180002A92548FCF797FE012123484E
:1038B000FCF7BFFE2148FCF7DEFE00BF1F48FCF707
:1038C000DFFE0028FAD11D48FCF7E4FE00BF1B48CC
:1038D000FCF7E5FE0028FAD107B000BD10B504469C
:1038E0000723012221461548FCF70FFF0121134849
:1038F000FCF7DFFE00BF02211048FDF74BF800285F
:10390000F9D00E48FCF768FF10BD2DE9F0410746DD
:103910000C460025002608E03846FFF7DFFF054487
:103920000520FFF784FC701CC6B2A642F4DBB5FB91
:10393000F4F080B2BDE8F0810008014000240140AD
:10394000704700001CB50C46064B7B44694600904E
:10395000204600F07EFA04460020694600F08CFA0A
:1039600020461CBD2B0500000FB4044910B503AA66
:10397000029800F087FA10BC5DF814FB5400002098
:103980002DE9F0410646002410687529314616A538
:1039900010D000F0B0F9002802DA404213A507E089
:1039A00031688A0701D512A502E0490704D511A59F
:1039B000012401E000F0A8F900210A2206F1240701
:1039C00009E0B0FBF2FCB0FBF2F302FB1C0030306C
:1039D00078541846491C0028F3D123462A4630461D
:1039E000BDE8F04100F0C2B9000000002D00000069
:1039F0002B00000020000000F0B40D4601880905EE
:103A000002D5214C7C4402E01F4C7C440E34002142
:103A100000F1240608E002F00F071209E75D42EA10
:103A200003721B097754491C52EA0307F3D1027849
:103A30000023120704D5702D06D009B102231134DA
:103A40002246F0BC00F092B901231034F8E770B5BB
:103A500004460D462146106800F056F902462946F4
:103A60002046BDE870400023C6E7D21D22F00703C0
:103A7000D3E90023C0E70368126843F02003036022
:103A80000823C3610023B7E7A01E00002DE9F05F03
:103A9000894604464FF0000ADFF874B1FB44C0F8D1
:103AA00020A02046E1688847002874D0252806D049
:103AB000D4E901219047206A401C2062F1E70026EA
:103AC0005F462046E16888472028054607DB312D00
:103AD00005D2781910F8200C08B10643F1E7B007B9
:103AE00001D526F00406C4F81CA00027C4F818A0CD
:103AF0002A2D09D0284601F0C4FB38B304EB87080F
:103B0000303DC8F8185019E059F8041B204604EB62
:103B100087029161E1688847012F054618D1E06965
:103B2000002820DA26F020061DE0D8F8180000EB67
:103B3000800005EB40003038C8F818002046E168E6
:103B40008847054601F09DFB0028EED1012F0AD0E1
:103B50002E2D08D12046E16888477F1C0546022F9C
:103B600046F02006C4DBA069002803DA404246F094
:103B70000106A061F00701D026F010066C2D0BD0D5
:103B8000682D09D04C2D39D06A2D35D0742D35D003
:103B90007A2D33D016E038E0E1682F46204688477A
:103BA000B842054609D16C2F26D04FF48060E168F9
:103BB000064320468847054604E06C2F1AD04FF490
:103BC000807006430DB3A5F14100192802D82035B5
:103BD00046F400664A462946204626604E46FCF7D3
:103BE000E1FA80B101280BD0F61D26F0070000F1A4
:103BF000080956E74020E4E78020D8E70020D6E710
:103C000006F104094DE7284652E7206ABDE8F09F17
:103C1000301E000010B5431C02E010F8011B71B10A
:103C20008107FAD14FF0013202C88C1A8C4314EA92
:103C3000C211F9D0C01A0A0603D0C01E10BDC01AA6
:103C400010BD0A0401D0801E10BD0902FCD0401E28
:103C500010BD4FF0000200B5134694469646203939
:103C600022BFA0E80C50A0E80C50B1F12001BFF435
:103C7000F7AF090728BFA0E80C5048BF0CC05DF89B
:103C800004EB890028BF40F8042B08BF704748BFE9
:103C900020F8022B11F0804F18BF00F8012B70475D
:103CA000704770477047704770B504468569006873
:103CB000C10601D5302600E02026C00707D070BD20
:103CC000D4E9012130469047206A401C20626D1ED5
:103CD000F6D570BD70B5044685690078C00707D178
:103CE00070BDD4E9012120209047206A401C206249
:103CF0006D1EF6D570BD09684A0501D540B2704702
:103D0000C905FCD500B2704709684A0501D5C0B2A3
:103D10007047C905FCD580B2704770B50C460546A2
:103D2000012A05D02878800600D5EA69002302E040
:103D3000012305E05B1C934202D2E05C0028F9D12C
:103D4000A869E618C01AA861286A1844286228469B
:103D5000FFF7AAFF04E0D5E9012114F8010B904711
:103D6000B442F8D32846FFF7B5FF70BD2DE9F04700
:103D70000D4699469246044600F1240801688806DB
:103D800004D5E06921F01001216000E00120A84283
:103D900001DD471B00E00027A1697A1902EB090049
:103DA000081AA0612078C00602D42046FFF77CFFE5
:103DB000002608E0D4E901211AF806009047206A9D
:103DC000401C761C20624E45F4DB2078C0060AD5E4
:103DD0002046FFF769FF06E0D4E901213020904733
:103DE000206A401C2062381EA7F10107F4DC07E0BE
:103DF000D4E9012118F805009047206A401C206290
:103E0000281EA5F10105F3DC2046FFF763FF2078AB
:103E1000000602D50220BDE8F0870120FBE711680B
:103E20000268006A530501D508700AE0D30501D580
:103E3000088006E0130603D5C217C1E9000200E0BE
:103E4000086001207047000001694A1C026108787F
:103E5000704700B58FB0CDE90131002105910549CA
:103E60007944CDE9031011466846FFF70FFE0FB005
:103E700000BD0000E5FFFFFF0A6802F8010B0A60C1
:103E800070470000074B70B50D467B44FFF7E1FF1C
:103E90000446284600F0D8FC10B14FF0FF3070BD4A
:103EA000204670BD91F9FFFF2DE9FF5F15468A4658
:103EB0000446DFF8AC80F8440027D8E900103E46FD
:103EC000CDE9001010E03AF816106A4602A800F09A
:103ED000BFFC411C07D02178890603D5E269391857
:103EE00091420DD80744761C2078800602D5E069FF
:103EF000B84205DDAE42E6DB3AF816000028E2D112
:103F0000A069C01BA0612046FFF7CEFED8E90010D3
:103F1000CDE90010002017E03AF818106A4602A810
:103F200000F096FCB0F1FF3F81460BD000250DF16B
:103F3000080B05E0D4E901211BF8050090476D1C32
:103F40004D45F7D308F10100B0428046E4DB206A1A
:103F5000384420622046FFF7BDFEBDE8FF9F000009
:103F60002A1A00002DE9F0418046D21D22F00702F6
:103F70000025D2E90002F52915A614D0011E72F120
:103F8000000106DA0023D0EB030063EB020211A666
:103F900008E0D8F800108B0701D50FA602E049070A
:103FA00001D50EA601251146002408F1240704E0DE
:103FB00000F04EF830323A55641C50EA0102F7D155
:103FC0002B46324621464046BDE8F041FFF7CEBEC3
:103FD000000000002D0000002B0000002000000069
:103FE00030B4002100F1240408E002F00705D208F3
:103FF000303542EA4372DB086554491C52EA030536
:10400000F3D10468002310A2250708D504F020048A
:104010000C4304D0C46901230CA2641EC46130BCEB
:10402000FFF7A4BE10B5044621461068FFF76CFEEA
:1040300002462046BDE810400023D1E7D21D22F001
:104040000701D1E90023CBE70000000030000000A9
:1040500030B5B0F10A024FEA900E71F100034EEA5A
:10406000817EB0EB0E0061EB91014FEA101E4EEA2B
:10407000017E10EB0E0041EB11114FEA102E4EEABB
:10408000016E10EB0E0041EB11214FEA104E4EEA8B
:10409000014E10EB0E0041EB1141401841F10001BF
:1040A0004FEAD00040EA41704FEAD10110EB8005A1
:1040B0004FEA810444EA907444EB01046D1944EB27
:1040C0000404521BA3414FF0000348BF0A3200D53D
:1040D00030BD401C41F1000130BD70472DE9FF4F5C
:1040E0000C461E464FF0FF378BB0D2E90001DDF8D9
:1040F00060800A908A46C1F30A5505B93D46002101
:1041000008464FF00000BAF1000F00F4400005DA55
:1041100000EB80004FF4400101EA50004FEA905953
:10412000B9F1010F00DDB9460A9850EA4A000ED0F5
:1041300044F61050A5F2FF3545432F14B8F1000F97
:104140001ED07542291E1EDDC9F100021CE0B8F127
:10415000010F4FF0000001D0302103E0F24305E0F1
:104160002154401CB042FBDB304600220021215488
:104170000B99C1F80880C1E900200FB0BDE8F08FAD
:10418000BD1B6D1CDEE74A4600DA694206A800F056
:10419000F1FB06AB93E8070003AB83E8070050464A
:1041A0000A9900F09FFC8DE80700A0F500501F3829
:1041B00000900398002D09DD42F21F014A46084491
:1041C00003A90390684600F0FEFE08E0A0F5005049
:1041D0004A461F3803A90390684600F008FF8DE89F
:1041E00007000004000C03D04FF0FF30410800E04E
:1041F0001046B8F1000F03D00022009215461EE0D1
:10420000751E05D4FFF724FF303262556D1EF9D5B7
:10421000B3460122084302D000227F1C04E020782C
:10422000302801D100227F1E002A099786D01DE088
:10423000112D07DAFFF70CFF303262556D1C50EA82
:104240000102F5D1084302D00098C8B10EE0002168
:10425000681E05E0235C625C63542254401E491CC6
:104260008142F7DBAB46A81B401E0990002004F8F2
:104270000B000B98099AC0F80880C0E9002B7CE776
:1042800011264FF0000859E72DE9F04F8846044603
:10429000D21D22F0070191B0D1E90001CDE90A0158
:1042A00000F0DBFF02460B98C00F01D02D2007E085
:1042B0002068810701D52B2002E0202101EAC000FF
:1042C000032A099001D0072A05DB03464146204610
:1042D00000F010FB0BE12078800601D5E06900E0DA
:1042E0000620B8F1650F814606D0B8F1660F18D0E8
:1042F000B8F1670F70D131E00020B9F1110F0090D3
:1043000001DB112301E009F101030AAA01A90CA8AC
:10431000FFF7E4FEDDE90C70002609F10105834694
:1043200047E001204B4600904FF000470AAA01A940
:104330000CA8FFF7D3FEDDE90DB00C995D46002611
:1043400010B909F101000D18B9EB050003D4C0F153
:10435000FF3609F10105A5EB09002BE0B9F1010FCA
:1043600001DA4FF001090020B9F1110F0090484621
:1043700001DD112300E003460AAA01A90CA8FFF7FA
:10438000ADFEDDE90C704D4600268346207800071F
:104390000AD4AB4500DA5D4601A8012D04DD4119C0
:1043A00011F8011C302907D04F4502DA17F1040F2C
:1043B00004DA012082460FE06D1EEEE7002F02DCDA
:1043C000ED1B3E4403E0781CA84200DD7D1CB81BB9
:1043D00000F1010A4FF000472078000703D4AA45F6
:1043E00001DB4FF0FF3A0021B7F1004F0DF1430818
:1043F0008DF8431024D002202B23002F01DA7F42B6
:104400002D230A21021EA0F1010000DC5FB197FB01
:10441000F1FC97FBF1F201FB1C7C17460CF1300C10
:1044200008F801CDEEE7A8F1010003702188090525
:1044300001D5452100E06521A0F1010800F8011C2B
:1044400009980FA9A1EB0807FF1D00B10120411930
:1044500001EBEA70A1693844081A401EA061207877
:10446000C00602D42046FFF71FFC099828B1D4E902
:1044700001219047206A401C20622078C00622D586
:104480002046FFF711FC1EE0002E04DBB34502DDE1
:1044900001A8805D00E03020D4E901219047206A26
:1044A000401C2062761CAAF101005FEA000A0AD1D2
:1044B00000F01CFAC0680168405CD4E90121904713
:1044C000206A401C2062281EA5F10105DCDC07E003
:1044D000D4E9012118F8010B9047206A401C2062A2
:1044E000381EA7F10107F3DC2046FFF7F3FB03209A
:1044F00011B043E62DE9F04F04460D46D21D22F0DF
:10450000070089B0D0E9009248461746394600F0C6
:10451000A4FE0246F80F01D02D2307E02068810792
:1045200001D52B2302E0202101EAC0038DF82030C1
:104530000BB1012000E00020032A824601D0072AA7
:1045400004DB2946204600F0D5F93DE120788006BD
:1045500001D40D2500E0E569C7F30A560D2D49DAAF
:1045600000214FEA175B08464FF00000002F00F4CF
:10457000400007DA00EB80004FF4400100EBD07000
:1045800001EA60008115012901DD4FF0FF310022B1
:104590004FEA850CBCF1180F06D31346ACF1180096
:1045A0004FF08052C24003E04FF4801323FA0CF323
:1045B0000CF10C0CBCF1200F04D3ACF1200C09FA67
:1045C0000CF001E007FA0CF000294FF0004801DD83
:1045D00018B90FE00ED140450CD319EB02095F4129
:1045E00021B9404502D19F4329EA0209BBEB175F7D
:1045F00000D0761C2088000502D57B48784402E074
:1046000079487844193808AA302302F80A30037C24
:104610000AF10101002E0AF1020A53546A4602DC33
:104620004FF0300101E04FF031014FF001088DF8FB
:10463000001002D0A6F2FF3603E059EA470100D08D
:104640006A4E002D02DC2178090704D54FF00208DC
:104650002E218DF80110C44600210BE0C7F303435F
:104660003F01C35C491C6D1E02F80830052908F1A2
:10467000010801DA002DF1DC00210CE000EB1973D8
:10468000491C1B786D1E082902F808304FEA0919E9
:1046900008F1010801DA002DF0DC2178890602D545
:1046A00014E0A8F10108E04505DD02EB080111F86E
:1046B000011C3029F5D0B8F1000F07DD02EB08012D
:1046C00011F8011C2E2901D1A8F10108002D05DDEA
:1046D0003E2102F808106D1E08F10108407C002EF2
:1046E00002F8080008F1010804DA2D20764202F8E9
:1046F000080002E02B2002F808000A214FF47A702B
:10470000864208F101080BDB96FBF0F3303302F828
:10471000083096FBF0F308F1010800FB136601E096
:10472000642E0CDB642096FBF0F3303302F8083083
:1047300096FBF0F308F1010800FB136601E00A2E76
:1047400006DB96FBF1F0303002F8080008F10108B2
:1047500096FBF1F001FB1060303002F80800A1690F
:1047600008F1010808EB050202EB0A00081AA06133
:104770002078C00602D42046FFF796FA216A08AED8
:1047800001EB0A00206204E0D4E9012116F8010BD4
:104790009047BAF1010AF7D22078C00602D5204628
:1047A000FFF782FA6E4609E016F8010B3E280FD09B
:1047B000D4E901219047206A401C2062B8F1010829
:1047C000F2D22046FFF786FA09B00320BDE8F08F49
:1047D000206A2844206203E0D4E901213020904778
:1047E0006D1EEBD3F8E70000FF12000002FCFFFF94
:1047F00010B5436913B1AFF3008001E0FFF78DFA04
:10480000012010BD127800F124010A7000224A70C4
:104810000122EDE711684FF0FF32E9E710B5436977
:1048200013B1AFF3008001E0FFF73EFB012010BDA4
:10483000128800F1240182840022C2840122EDE763
:1048400011684FF0FF32E9E7007B00F0800070470D
:1048500070B516460C46054600F040F8036893F81C
:104860000101012806D0FF2C0FD8185D68B1012086
:104870002C7070BDD3F807013246214603F20713AE
:1048800003442846BDE8704018474FF0FF3070BD24
:10489000754600F0E3F8AE4605006946534620F041
:1048A0000700854618B020B5FBF7F0FDBDE82040B5
:1048B0004FF000064FF000074FF000084FF0000BDC
:1048C00021F00701AC46ACE8C009ACE8C009ACE88F
:1048D000C009ACE8C0098D467047000010B500F073
:1048E00005F8001D10BD00BFD50900000048704745
:1048F000A40300202DE9F0411F4604460326016869
:10490000072A01F4006004DB08B116A505E016A52E
:1049100003E008B115A500E015A521F01000206006
:10492000A069C01EA0610FB1401EA0612046FFF724
:10493000BBF94FB1D4E9012138469047206A401CA9
:104940002062C01C206206E0206AFAE7D4E9012157
:1049500015F8010B9047761EF8D22046FFF7BAF9FA
:10496000BDE8F0814E414E006E616E00494E46003A
:10497000696E66002DE9F047814616468AB03348D5
:1049800078440DC88DE80D0030487844801C03AC95
:104990000DC884E80D0041F69B300844372190FB98
:1049A000F1F290FBF1F5A5F1800501FB12041B3C2F
:1049B00002D56442012000E00020DFF890A080468C
:1049C0000027FA44AAF1BE0A0DE0E00709D03246FA
:1049D000684607EB47010AEB810100F008FB8DE810
:1049E000070064107F1C002CEFD1184F7F44AC3FB0
:1049F00018E0E80714D007EB04100DF1180A90E84E
:104A00000E008AE80E00C068F04201D198190890A3
:104A1000324606A903A800F0EAFA03AB83E80700D0
:104A20006D10641C002DE4D132466946B8F1000FC8
:104A300003A802D000F0C7FA01E000F0D8FAC9E9F3
:104A40000001C9F808200AB0BDE8F0870C1000008A
:104A50000446AFF300802046FBF707FC0048704790
:104A6000840300204FF0013C50F8042B51F8043B24
:104A70009A4221D1A2EB0C03934313EACC1317D132
:104A800050F8042B51F8043B9A4215D1A2EB0C03C9
:104A9000934313EACC130BD150F8042B51F8043B89
:104AA0009A4209D1A2EB0C03934313EACC13DBD057
:104AB0004FF00000704700BFD01A01BAB1FA81F17F
:104AC00001F0180122FA01F0CB40C1F12001DBB264
:104AD000C0B2C01A2CFA01F3D11A914311EAC311E2
:104AE000E6D170475FEA400C08BF91F0000F4FEA33
:104AF0008C234FEAC12243EA51514FEA1C5018BFA0
:104B000000F5F0404FEA300018BF41F000415FEA85
:104B10006C5C00F02980BCF1FF3F08BF40F0804092
:104B20007047130C06BF12044FF0100C4FF0000C2E
:104B3000130E04BF12020CF1080C130F04BF120174
:104B40000CF1040C930F04BF92000CF1020CD30F74
:104B500004BF52000CF1010C11464FF00002A0F10D
:104B60001F00A0EB0C00704711F0004F08BF70470A
:104B700031F000413FF4D5AF0B0C06BF09044FF0F4
:104B8000100C4FF0000C0B0E04BF09020CF1080CC6
:104B90000B0F04BF09010CF1040C8B0F04BF89003B
:104BA0000CF1020CCB0F04BF49000CF1010CCCF14D
:104BB0002003A0EB0C0022FA03F302FA0CF241EA04
:104BC000030100F10100704720F07F4C80EA0300F0
:104BD00023F07F47ACEB070303F57C5300F0004064
:104BE00003F1FF032DE980494FEA154B09B44FEA61
:104BF000144325EA0B4E24EA03480FF2042606EB81
:104C0000132749083E785FEA320203FB0667C7F5BF
:104C1000000707FB06F64FEA54374FEAD64606F17F
:104C2000020607FB066CCCF1005C4FEA1C472CEA3D
:104C3000074C07FB06F40CFB06F504EB15464FEAA0
:104C4000961634BF00204FF000404FEAD13706FBE4
:104C500007FC4FEA1C4C0CFB0BF7D21B03FB0CF7B9
:104C600061EB07010CFB0EF7B0EB074072EB17424C
:104C70000CFB08F734BFA2EB0742B2EB074261EB33
:104C800017414FEA0C444FEA910706FB07FC4FEA35
:104C90001C4C0CFB0BF7B0EBC74072EB573203FB1D
:104CA0000CF734BFA2EBC742B2EBC74261EB5731FE
:104CB0000CFB0EF7B0EBC70072EB57720CFB08F75A
:104CC00034BFA2EBC702B2EBC70261EB5771039F7F
:104CD0004FEA816141EA921104EBCC044FEAD137EB
:104CE0004FEA826206FB07FC42EA90124FEA8060BC
:104CF0004FEA1C4C0CFB0BF7D21B03FB0CF761EBD0
:104D000007010CFB0EF7B0EB074072EB17420CFBF0
:104D100008F734BFA2EB0742B2EB074261EB174141
:104D20004FEA8C554FEA910704EB9C2406FB07FCE5
:104D30004FEA1C4C0CFB0BF7B0EBC74072EB573241
:104D400003FB0CF734BFA2EBC742B2EBC74261EBE7
:104D500057310CFB0EF7B0EBC70072EB57720CFB30
:104D600008F734BFA2EBC702B2EBC70261EB577181
:104D700015EB4C254FEA816141EA92114FEA8262BC
:104D80004FEAD13742EA901206FB07FC44F10004D7
:104D90004FEA80604FEA1C4C0CFB0BF7D21B03FB65
:104DA0000CF761EB07010CFB0EF7B0EB074072EB61
:104DB00017420CFB08F734BFA2EB0742B2EB0742E5
:104DC00061EB174115EB1C154FEA813141EA924125
:104DD0004FEA823242EA90424FEA80304FEA0C7644
:104DE00044F1000448EA03434EEA0B484FF0000E3A
:104DF000B2EB080C71EB030724BF624639464EEB59
:104E00000E0E4FF0000B0018524149414BEB0B0BBB
:104E1000B2EB080C71EB03077BF1000B24BF624679
:104E200039464EEB0E0E4FF0000B0018524149412F
:104E30004BEB0B0BB2EB080C71EB03077BF1000B98
:104E400024BF624639464EEB0E0E51EA020718BFE8
:104E500046F0010616EB0E7655F1000254F1000102
:104E600003D5BDE88901BDE80088BDE88901BDE83A
:104E70000048B619524141EB0101A3F1010370470B
:104E800080807F7E7D7C7B7A797877767675747387
:104E9000727171706F6E6E6D6C6C6B6A6A69686846
:104EA000676666656464636362616160605F5F5EDC
:104EB0005E5D5D5C5C5B5B5A5A5959585857575652
:104EC00056555555545453535252525151505050B7
:104ED0004F4F4F4E4E4D4D4D4C4C4C4B4B4B4A4A09
:104EE0004A4949494848484747474746464645454D
:104EF0004544444444434343434242424241414186
:104F0000002B26D4770021D01CB54FEA370703B415
:104F10004FF010004FF010014FF000000FBCBDE843
:104F200010400BF1010BBBF1010F08BF5FEA17073F
:104F300022BF12F1010211F101014FF0004143F1D2
:104F4000000300F0004043EA00007047F9D357081F
:104F5000DAE746EA064613F1400F4FEA16461FDD30
:104F600013F1200FDFBF16430A46002120335B42B6
:104F7000C8D0C3F1200746EA064602FA07F74FEA0F
:104F8000164646EA0706C3F1200722FA03F201FAA1
:104F900007F721FA03F14FF0000342EA0702B1E7F5
:104FA00046EA020646EA06464FEA164646EA010681
:104FB000BCBF46EA0646360C4FF000034FF0000235
:104FC0004FF000019EE72DE9C048934630B491E8C8
:104FD000380007C831EA400C48BF34EA430C03D517
:104FE000FFF7F2FDFFF78CFFF0BCBDE800882DE96C
:104FF000C048934630B491E8380007C810F0804F9D
:1050000008BF13F0804F03D100F005F8FFF778FFD9
:10501000F0BCBDE8008820F07F4780EA030023F061
:105020007F4C07EB0C03A3F57C5300F00040A3F189
:10503000FE0392F0000F00F0B38095F0000F00F037
:1050400077802DE901494FEA11404FEA144621EAE1
:10505000004800FB06FC24EA064708FB06F607FBAF
:1050600008F800FB07F718EB06484CEB164C4FEA24
:10507000124B18EB07484FEA15464CEB174022EA53
:105080000B4E0BFB06FC25EA06470EFB06F607FB5C
:105090000EFE0BFB07F71EEB064E4CEB164C4FF0CB
:1050A00000061EEB074E4CEB174B18EB0B0840F1BC
:1050B000000018EB0E0B58EB000840F100008F1AAF
:1050C0004FF000013CBFC943661B14BFB5EB040C95
:1050D00000213CBFC943F61B4FEA17444EEA8E0E2F
:1050E00027EA04454FEA1C4704FB07622CEA074CF9
:1050F00005FB07F70CFB05F604FB0CFC16EB07465B
:1051000042EB174216EB0C4642EB1C421BEB060629
:1051100058EB0202414146EA9E0601D5BDE80189ED
:10512000B619524141EB0101A3F10103BDE8018928
:105130004FEA14454FEA114724EA054621EA074C95
:1051400005FB07F406FB07F70CFB06F105FB0CFC5F
:1051500011EB074144EB17444FEA124711EB0C41A6
:1051600044EB1C4422EA074C05FB07F206FB07F759
:105170000CFB06F605FB0CFC16EB074642EB174250
:1051800016EB0C4642EB1C456A1854F1000148BF6F
:105190007047B619524141EB0101A3F10103704779
:1051A00095F0000F37D04FEA11424FEA144721EA39
:1051B000024624EA074C02FB07F106FB07F70CFB4B
:1051C00006F402FB0CFC14EB074441EB17414FEAD9
:1051D000154714EB0C4441EB1C4125EA074C02FB3C
:1051E00007F506FB07F70CFB06F602FB0CFC16EBBB
:1051F000074645EB174516EB0C4645EB1C421219CA
:1052000051F1000148BF7047B619524141EB01010D
:10521000A3F1010370474FEA14454FEA114724EA0E
:10522000054621EA074C05FB07F106FB07F70CFBD7
:1052300006F24FF0000605FB0CFC12EB074241EBB7
:10524000174112EB0C4251EB1C4148BF70479218BA
:1052500041EB0101A3F101037047490050EAC1206D
:1052600018BF04204A0D18BF40F0010040F2FF7241
:10527000B2EB515F08BF40F00200012808BF0520D3
:10528000704730380A2801D201207047002070474B
:1052900010B500290AD00878002807D005487844BE
:1052A000FFF7E0FB002801D0002010BD0248784441
:1052B00010BD00002A0700002207000010B50029D9
:1052C0000AD00878002807D005487844FFF7CAFBC1
:1052D000002801D0002010BD0248784410BD000015
:1052E0001A0700001207000010B591EA030F48BF2B
:1052F00083F0004300F1F281841A71EB030C05D2B4
:10530000121943EB0C03001B61EB0C01DFF824E1E5
:105310004FEA1154A4EB135C1EEA430F18BF9EEA38
:10532000445F73D023EA0E03DCF1200E21EA04511E
:1053300043F4801332D322FA0CFE10EB0E0023FA52
:105340000CFE41EB0E01CCF1200E03FA0EFE10EB29
:105350000E0051F10001B1F5801FCCF1200E32D2C8
:1053600001EB045112FA0EF2BDE8104058BF70472D
:10537000401C38BF5FEA420218BF7047002814BFC4
:1053800020F0010041F100014FEA410313F5001F35
:1053900038BF7047A1F1C04100F086B9012A43EB44
:1053A0000302ACF1200CDCF11F0E32BF4FF0000EF7
:1053B00023FA0CF310EB030041EB0451B4EB115F43
:1053C000D0D0A1EB045101F5801149085FEA30000B
:1053D00001EB04510ED350F1000038BF12FA0EFE5B
:1053E00008D1BDE81040C9E7401C38BF5FEA42025F
:1053F000CAD1C3E7BDE810404FEA410313F5001FCF
:1054000038BF7047A1F1C04100F04EB99EEA445F39
:1054100008D011EA5E0FBDE8104004BF01F0004162
:1054200000207047BDE8104070B500F0EFF800BFF5
:1054300064FBBE3E0000E0FF4FEA1153A3F580631A
:10544000D3F11E03A8BFD3F1200C08DB4FF00042BC
:1054500042EAC12252EA505232FA03F0704709423E
:105460000BD4102BC4BF0020704703F5787CBCF12F
:10547000FF3F05D04FF0FF3070474FF000007047FE
:1054800070B500F0C3F800BF499224800020704737
:10549000F0E7B0FA80F310FA03F10AD0C3F11D036C
:1054A00003F580634FEA41504FEA035202EBD121EA
:1054B00070474FF000007047DFF848C170B51CEA34
:1054C000111E1EBF1CEA13159EEA0C0F95EA0C0F65
:1054D00000F06F8081EA030423EA4C134EEAD47E85
:1054E00021EA4C1141F4801143F48013AE44A1FB36
:1054F000024CA0FB0365AEF17F7E361955EB0C051F
:10550000A1FB034C4CF10003A0FB021C16EB0C06A4
:10551000654153F10003094218BF46F0010613F438
:10552000007F0BD14FEA03314FEA0530340341EAE3
:10553000155140EA16506FF003020AE04FEAC3210A
:105540004FEAC520F40241EA555140EA56506FF047
:10555000020202EB2E4201EB025585EACE710AD01F
:105560005FEA440C18BF24F0004450F1000041F100
:10557000000120EAD47040F2FE7C624500D270BD8A
:10558000A84214BF4FF080444FF04044002E08BFA3
:105590000024BEF1806FA8BFA1F1C041BDE87040FA
:1055A00080F282804FF0000001F1C04101F0004123
:1055B00070479EEA0C0F0CEA131518BF95EA0C0F02
:1055C00006D04FF0000081EA030E0EF0004170BDDE
:1055D00000F01CF88900013E00F007B800F009B89F
:1055E0004FEA430C5FEA5C5C08D081EA030100F0FB
:1055F0005BB84FEA410C5FEA5C5CF6D14FF000000B
:10560000014970470000FF070000F87F0EF1020E0D
:105610002EF0030E5EF8046B364205D4012A43EBEC
:10562000030515F5001F12D8012841EB010C1CF5EC
:10563000001F0CD80ED14FEAD17C15F5001F0CEBE2
:105640004C0C0CF1020C08BF4CEBD37C04E04FF087
:10565000080C01E04FEAD37C0CEB4C0526FA05F66A
:1056600006F00706B6F1040C06D20EEB860CBDE878
:1056700070404CF0010C6047DFE80CF0090B0202AF
:105680004FF000414FF00000A1F5002170BD194618
:105690001046012851EB010418BFD4F5001484BF53
:1056A000002001F0004170BD0808A0F500114FEA8C
:1056B0003101704791EA030F10B581F000413FF5C9
:1056C0001BAE83F0004300F009B8000010B591EA6A
:1056D000030F48BF83F000433FF50EAE841A71EB11
:1056E000030C07D212198CF0004C43EB0C03001B87
:1056F00061EB0C01DFF8A4E14FEA1154A4EB135C59
:105700001EEA430F18BF9EEA445F00F0B08023EA10
:105710006E03524221EA0451C3EB6E0338BF5B1E95
:10572000DCF1200E25D322FA0CFE10EB0E0043FA1A
:105730000CFE41EB0E01CCF1200E03FA0EFE10EB35
:105740000E0051F10001CCF1200E29D412FA0EF214
:1057500001EB0451BDE8104058BF7047401C1CBF0E
:10576000B2F1004F704700280CBF491C20F0010027
:10577000704712EB020E43EB030218BF4FF0010E0D
:105780004EEA4202ACF1200CDCF11E0E54D943FA71
:105790000CFE10EB0E0051F1FF31CCF11E0ED5D5F1
:1057A0000EF1010E12FA0EFE404141EB010101EB38
:1057B000445C5FEA5C5C10D910EBDE7001EB0451D5
:1057C00038BFBEF1004FBDE8104018BF7047002839
:1057D0000CBF491C20F00100704730D24FEAD42C96
:1057E00011F5001124F400641BD0B1FA81F20B3AD8
:1057F000A41AA41ED2F12003914030FA03F31943F6
:10580000904001EBCC71002C01EB0451BDE810403D
:10581000A8BF704701F1C0414FF0000001F0004106
:105820007047B0FA80F310FA03F100D110BDE41A0A
:10583000173C4805C90AE4E701EB045110BD4910C3
:1058400001EB0451BDE810404FEA300002E04FF098
:10585000000170474A0008BF0042F8D0B2F5001FAF
:1058600028BF704701F000414FF0000070479EEAEA
:10587000445F07D011EA5E0FBDE8104004BF00216D
:1058800000207047BDE8104070B5FFF7BFFE00BFB5
:1058900040DFF63E83F00041104670470000E0FF15
:1058A000FEF7F2BCFEF726BE3031323334353637E0
:1058B0003839414243444546403058003031323354
:1058C0003435363738396162636465664030780054
:1058D00004000008000000000000000200010000B9
:1058E00010000000000000000000000030313233E2
:1058F00034353637383961626364656678700030F4
:1059000031323334353637383941424344454658CD
:105910005000000002400000000000A00000000055
:1059200005400000000000C8000000000C4000001E
:105930000000409C00000000194000000020BCBE98
:105940000000000034400000BFC91B8E00000004AE
:10595000B5400000504BCFD06607E2CF01000000F9
:105960006C4100003E8251AADFEEA7340100000026
:10597000D9420000DCB5A0E23A301F97FFFFFFFFDD
:10598000B4450000FD25A0C8E9A3C14FFFFFFFFFFC
:10599000FF3F00000000008000000000FF3F00000B
:1059A0000000008000000000F45A00080000002001
:1059B000580000006C0100084C5B000858000020F3
:1059C00090090000880100081C000000430000004E
:1059D000F8FFFFFF0C0000000E0000000F000000A9
:1059E0002E0000001001000043000000F8FFFFFF40
:1059F00000404040404040404040414141414140E2
:105A00004040404040404040404040404040404096
:105A10004005020202020202020202020202020225
:105A2000022020202020202020202002020202022A
:105A30000202909090909090101010101010101082
:105A4000101010101010101010101010020202028E
:105A500002028888888888880808080808080808D2
:105A600008080808080808080808080802020202CE
:105A700040000000000000000000000000000000E6
:105A80000000000000000000000000000000000016
:105A90000000000000000000000000000000000006
:105AA00000000000000000000000000000000000F6
:105AB00000000000000000000000000000000000E6
:105AC00000000000000000000000000000000000D6
:105AD00000000000000000000000000000000000C6
